{
    "contractName": "RPSContract",
    "abi": [
        {
            "inputs": [],
            "stateMutability": "payable",
            "type": "constructor"
        },
        {
            "inputs": [],
            "name": "getHistory",
            "outputs": [
                {
                    "components": [
                        {
                            "internalType": "string",
                            "name": "result",
                            "type": "string"
                        },
                        {
                            "internalType": "uint8",
                            "name": "bet",
                            "type": "uint8"
                        }
                    ],
                    "internalType": "struct RPSContract.Game[]",
                    "name": "",
                    "type": "tuple[]"
                }
            ],
            "stateMutability": "view",
            "type": "function"
        },
        {
            "inputs": [],
            "name": "owner",
            "outputs": [
                {
                    "internalType": "address",
                    "name": "",
                    "type": "address"
                }
            ],
            "stateMutability": "view",
            "type": "function"
        },
        {
            "inputs": [
                {
                    "internalType": "string",
                    "name": "playerSelection",
                    "type": "string"
                }
            ],
            "name": "play",
            "outputs": [],
            "stateMutability": "payable",
            "type": "function"
        }
    ],
    "bytecode": "608060405266038d7ea4c68000600055600180546001600160a01b03191633179055610a92806100306000396000f3fe6080604052600436106100345760003560e01c8063718e6302146100395780638da5cb5b1461004e578063aa15efc81461008b575b600080fd5b61004c610047366004610732565b6100ad565b005b34801561005a57600080fd5b5060015461006e906001600160a01b031681565b6040516001600160a01b0390911681526020015b60405180910390f35b34801561009757600080fd5b506100a061049b565b6040516100829190610807565b60005434116101025760405162461bcd60e51b815260206004820152601860248201527f4d696e696d616c2062657420697320302e30303120626e620000000000000000604482015260640160405180910390fd5b6040805160208101909152600080825261011a6105a4565b90508060405160200161012d9190610894565b60405160208183030381529060405280519060200120836040516020016101549190610894565b60405160208183030381529060405280519060200120036101a3576040518060400160405280600b81526020016a497427732061207469652160a81b815250915061019e33610648565b61042c565b60405163726f636b60e01b602082015260240160405160208183030381529060405280519060200120836040516020016101dd9190610894565b6040516020818303038152906040528051906020012014801561025157506040516773636973736f727360c01b602082015260280160405160208183030381529060405280519060200120816040516020016102399190610894565b60405160208183030381529060405280519060200120145b806103025750604051643830b832b960d91b602082015260250160405160208183030381529060405280519060200120836040516020016102929190610894565b60405160208183030381529060405280519060200120148015610302575060405163726f636b60e01b602082015260240160405160208183030381529060405280519060200120816040516020016102ea9190610894565b60405160208183030381529060405280519060200120145b806103b757506040516773636973736f727360c01b602082015260280160405160208183030381529060405280519060200120836040516020016103469190610894565b604051602081830303815290604052805190602001201480156103b75750604051643830b832b960d91b6020820152602501604051602081830303815290604052805190602001208160405160200161039f9190610894565b60405160208183030381529060405280519060200120145b156103f35760405180604001604052806013815260200172596f752077696e207468697320726f756e642160681b815250915061019e33610681565b6040518060400160405280601981526020017f436f6d70757465722077696e73207468697320726f756e64210000000000000081525091505b6040805180820182528381523460ff16602080830191909152336000908152600280835293812080546001810182559082529190208251929384939202019081906104779082610939565b50602091909101516001909101805460ff191660ff90921691909117905550505050565b336000908152600260209081526040808320805482518185028101850190935280835260609492939192909184015b8282101561059b57838290600052602060002090600202016040518060400160405290816000820180546104fd906108b0565b80601f0160208091040260200160405190810160405280929190818152602001828054610529906108b0565b80156105765780601f1061054b57610100808354040283529160200191610576565b820191906000526020600020905b81548152906001019060200180831161055957829003601f168201915b505050918352505060019182015460ff166020918201529183529290920191016104ca565b50505050905090565b60606000604051806060016040528060405180604001604052806004815260200163726f636b60e01b8152508152602001604051806040016040528060058152602001643830b832b960d91b81525081526020016040518060400160405280600881526020016773636973736f727360c01b815250815250905060006106286106c1565b905081816003811061063c5761063c6109f9565b60200201519250505090565b6040516001600160a01b038216903480156108fc02916000818181858888f1935050505015801561067d573d6000803e3d6000fd5b5050565b6001600160a01b0381166108fc610699346002610a0f565b6040518115909202916000818181858888f1935050505015801561067d573d6000803e3d6000fd5b604080514260208201526bffffffffffffffffffffffff193360601b16918101919091524360548201526000906003906074016040516020818303038152906040528051906020012060001c6107179190610a3a565b905090565b634e487b7160e01b600052604160045260246000fd5b60006020828403121561074457600080fd5b813567ffffffffffffffff8082111561075c57600080fd5b818401915084601f83011261077057600080fd5b8135818111156107825761078261071c565b604051601f8201601f19908116603f011681019083821181831017156107aa576107aa61071c565b816040528281528760208487010111156107c357600080fd5b826020860160208301376000928101602001929092525095945050505050565b60005b838110156107fe5781810151838201526020016107e6565b50506000910152565b60006020808301818452808551808352604092508286019150828160051b87010184880160005b8381101561088657603f198984030185528151805187855280518089870152606061085e828289018d86016107e3565b928a015160ff16868b015296890196601f01601f19169094010192509086019060010161082e565b509098975050505050505050565b600082516108a68184602087016107e3565b9190910192915050565b600181811c908216806108c457607f821691505b6020821081036108e457634e487b7160e01b600052602260045260246000fd5b50919050565b601f82111561093457600081815260208120601f850160051c810160208610156109115750805b601f850160051c820191505b818110156109305782815560010161091d565b5050505b505050565b815167ffffffffffffffff8111156109535761095361071c565b6109678161096184546108b0565b846108ea565b602080601f83116001811461099c57600084156109845750858301515b600019600386901b1c1916600185901b178555610930565b600085815260208120601f198616915b828110156109cb578886015182559484019460019091019084016109ac565b50858210156109e95787850151600019600388901b60f8161c191681555b5050505050600190811b01905550565b634e487b7160e01b600052603260045260246000fd5b8082028115828204841417610a3457634e487b7160e01b600052601160045260246000fd5b92915050565b600082610a5757634e487b7160e01b600052601260045260246000fd5b50069056fea2646970667358221220d412819f6add09205b33b09987e12c8c6b741d7898f643bba53d5f0ce793bb5064736f6c63430008130033",
    "sourcePath": "c:/Users/Артём/Desktop/bchain 2 ass/rockps.sol",
    "compiler": {
        "name": "solc",
        "version": "0.8.19+commit.7dd6d404"
    },
    "functionHashes": {
        "getHistory()": "aa15efc8",
        "owner()": "8da5cb5b",
        "play(string)": "718e6302"
    },
    "gasEstimates": {
        "creation": {
            "codeDepositCost": "541200",
            "executionCost": "46892",
            "totalCost": "588092"
        },
        "external": {
            "getHistory()": "infinite",
            "owner()": "2326",
            "play(string)": "infinite"
        },
        "internal": {
            "computerPlay()": "infinite",
            "random()": "infinite",
            "withdrawToTie(address payable)": "infinite",
            "withdrawToWinner(address payable)": "infinite"
        }
    }
}